:020000040000FA
:100000000C9473000C949B000C949B000C94CF06F2
:100010000C94CF060C94CF060C949B000C949B0080
:100020000C949B000C949B000C949B000C949B00E4
:100030000C949B000C949B000C949B000C949B00D4
:100040000C942D060C949B000C949D060C94770642
:100050000C949B000C949B000C949B000C949B00B4
:100060000C949B000C949B00005EBCE2613FDD831E
:10007000C29C7E20A3FD1F41009D23BE46DB65F888
:100080008C11AF32CA57E974000000002400270029
:100090002A0000000008000201000003040700001D
:1000A00000000000000000000000250028002B00D8
:1000B00000000000230026002900040404040404B6
:1000C0000404020202020202030303030303010207
:1000D00004081020408001020408102001020408D6
:1000E00010207807CC0A11241FBECFEFD8E0DEBF66
:1000F000CDBF11E0A0E0B1E0E2E0FBE102C005907D
:100100000D92AA33B107D9F722E0AAE3B1E001C00A
:100110001D92A037B207E1F710E0C2E7D0E004C0BB
:100120002197FE010E946E0DC137D107C9F70E94C9
:1001300075080C94740D0C94000090E0FC01EE56D0
:10014000FF4F2491FC01E253FF4F3491FC01E65430
:10015000FF4FE491EE23C9F0222339F0233001F15F
:10016000A8F4213019F1223029F1F0E0EE0FFF1F41
:10017000EA55FF4FA591B4918FB7F894EC916111B6
:1001800026C030953E233C938FBF08952730A9F0B9
:100190002830C9F0243049F7809180008F7D03C05A
:1001A000809180008F7780938000DFCF84B58F7738
:1001B00084BDDBCF84B58F7DFBCF8091B0008F777E
:1001C0008093B000D2CF8091B0008F7DF9CF3E2BCD
:1001D000DACF3FB7F89480918B0190918C01A09178
:1001E0008D01B0918E0126B5A89B05C02F3F19F057
:1001F0000196A11DB11D3FBFBA2FA92F982F8827A7
:10020000BC01CD01620F711D811D911D42E0660F81
:10021000771F881F991F4A95D1F708958F929F9253
:10022000AF92BF92CF92DF92EF92FF926B017C016F
:100230000E94E9004B015C01C114D104E104F10406
:10024000B9F00E94E900681979098A099B09683E9A
:1002500073408105910580F321E0C21AD108E108BD
:10026000F10888EE880E83E0981EA11CB11CE4CF33
:10027000FF90EF90DF90CF90BF90AF909F908F90C6
:100280000895AF92BF92CF92DF92EF92FF920F93B9
:100290001F93CF93DF936C017B018B01040F151F1C
:1002A000EB015E01AE18BF08C017D10759F0699184
:1002B000D601ED91FC910190F081E02DC6010995E8
:1002C000892B79F7C501DF91CF911F910F91FF9095
:1002D000EF90DF90CF90BF90AF900895FC01538DC9
:1002E000448D252F30E0842F90E0821B930B541710
:1002F00010F0CF96089501970895FC01918D828D9D
:10030000981761F0A28DAE0FBF2FB11D5D968C9135
:10031000928D9F5F9F73928F90E008958FEF9FEF74
:100320000895FC01918D828D981731F0828DE80F30
:10033000F11D858D90E008958FEF9FEF0895FC01EA
:10034000918D228D892F90E0805C9F4F821B9109B7
:100350008F73992708958FE891E00E949F0121E013
:10036000892B09F420E0822F089580E090E0892B0A
:1003700029F00E94AB0181110C9400000895FC014A
:10038000A48DA80FB92FB11DA35ABF4F2C91848DF6
:1003900090E001968F739927848FA689B7892C9353
:1003A000A089B1898C91837080648C93938D848DA6
:1003B000981306C00288F389E02D80818F7D8083A9
:1003C0000895EF92FF920F931F93CF93DF93EC0169
:1003D00081E0888F9B8D8C8D98131AC0E889F989EC
:1003E000808185FF15C09FB7F894EE89FF896083EF
:1003F000E889F98980818370806480839FBF81E070
:1004000090E0DF91CF911F910F91FF90EF900895B1
:10041000F62E0B8D10E00F5F1F4F0F731127E02E8C
:100420008C8D8E110CC00FB607FCFACFE889F989C4
:10043000808185FFF5CFCE010E94BF01F1CFEB8D0A
:10044000EC0FFD2FF11DE35AFF4FF0829FB7F89498
:100450000B8FEA89FB8980818062CFCFCF93DF93B6
:10046000EC01888D8823B9F0AA89BB89E889F989CC
:100470008C9185FD03C0808186FD0DC00FB607FC01
:10048000F7CF8C9185FFF2CF808185FFEDCFCE0134
:100490000E94BF01E9CFDF91CF91089520917C01A7
:1004A00030917D012817390771F490917B0180917B
:1004B0007A01981741F0E0917B01F0E0E65CFE4F95
:1004C000808190E008958FEF9FEF08950895EF9257
:1004D000FF920F931F93CF93DF93DC015C96ED9017
:1004E000FC905D97E114F10479F481E090E01396BB
:1004F0009C938E93129790E080E0DF91CF911F91B3
:100500000F91FF90EF9008955196ED91FC915297C5
:1005100050968C915097982F90950FB75E962C918E
:100520005E97122F127021FD6095F894208111239F
:1005300019F1282B2083E7012197F1F728E0462FB6
:1005400050E0308160FF1AC0382B3083E7012197DB
:10055000F1F7BA0175956795215089F7112381F05C
:100560008081892380830FBF5C968D919C91019738
:10057000F1F781E090E0C1CF2923DCCF3923E5CF2B
:100580009081892BEFCF20917C0130917D0128173C
:10059000390761F480917A0120917B0190E0805CC1
:1005A0009F4F821B91098F739927089590E080E0F7
:1005B000089520917C0130917D0128173907B9F405
:1005C00090917B0180917A01981789F0E0917B01ED
:1005D000F0E0E65CFE4F808120917B0130E02F5FF0
:1005E0003F4F2F73332720937B0190E008958FEFC7
:1005F0009FEF089590E080E00895DC0180E0615075
:1006000090F09D919827E92FEF70F0E0E859FF4FA7
:100610002491E92FE295EF70F0E0E858FF4FE49164
:10062000822F8E27ECCF0895DC012C911196ED914D
:10063000FC91F8948181822B81839281322F3095B5
:100640009323928387E090E00197F1F781818323E0
:10065000818383E290E00197F1F790817894EFEC49
:10066000F0E03197F1F7922381E009F480E00895FA
:10067000FC0190810180F281E02D292F209560FFFF
:1006800014C0F8948281822382838181892B8183A3
:10069000A3E2B0E01197F1F78281982B92837894CE
:1006A00087ED90E00197F1F70895F8948281822315
:1006B00082838181892B8183AFEFB0E01197F1F7BD
:1006C0008281982B928378948FE090E0EBCFDF9239
:1006D000EF92FF920F931F93CF93DF93EC01D62EEF
:1006E000E42E08E010E0FF24F39461E08D2D8F21CB
:1006F00009F460E0CE010E943803FF0C015011099B
:10070000A1F7E11010C0F894E981FA819181888104
:10071000809589238183E981FA81928188818095FE
:10072000892382837894DF91CF911F910F91FF905D
:10073000EF90DF900895EF92FF920F931F93CF9366
:10074000DF938C017B0140E065E50E946703E701D0
:1007500088E0E80EF11C699140E0C8010E9467033F
:10076000CE15DF05C1F7DF91CF911F910F91FF905B
:10077000EF900895FC0190810180F281E02DF894C2
:100780008181292F20958223818378943DE743E05E
:1007900050E0315029F1DA011197F1F78081892376
:1007A000C1F3F8948281822382838181892B8183A2
:1007B0007894ABE7B7E01197F1F7F8948181822341
:1007C0008183A3E1B1E01197F1F78081982381E063
:1007D00009F080E07894E3E6F6E03197F1F70895C8
:1007E00080E008956F927F928F929F92AF92BF9216
:1007F000CF92DF92EF92FF920F931F93CF93DF93ED
:100800008C01EB0180915402909155020E94BA0331
:10081000882309F43FC0B801809154029091550299
:100820000E949B0340E06EEB809154029091550230
:100830000E9467037E016E0189E0C80ED11C8E0103
:10084000A0905402B090550288E0882E912C712C13
:1008500066246394C5010E94140381117628660CF6
:10086000E1E08E1A9108B1F7F80171928F01CE166E
:10087000DF0631F780915402909155020E94BA032D
:10088000813041F4F70181917F01811105C0E017AA
:10089000F107C1F790E008C068E0CE010E94FD02B8
:1008A00091E028852813F6CF892FDF91CF911F91F2
:1008B0000F91FF90EF90DF90CF90BF90AF909F90FF
:1008C0008F907F906F900895BF92CF92DF92EF92BA
:1008D000FF920F931F93CF93DF93EC01B62EC72E99
:1008E0008D85811105C0CE010E94BA0381110EC011
:1008F0001B861D861C8680E0DF91CF911F910F9192
:10090000FF90EF90DF90CF90BF90089540E060EFB0
:10091000CE010E94670301E0E12CD12C11E0CE0151
:100920000E941403F82ECE010E94140391E0F912E4
:1009300018C0813099F51134D8F2DB86D11002C08D
:1009400081E08D878B81882399F22396EB2DFC2DF6
:10095000CF01089629912193E817F907D9F781E08B
:10096000CBCFEE2DF0E0F8120FC08B851817A0F456
:10097000DE01AE0FBF1F13968C91802379F4F12C0A
:10098000193008F41C87D12EEC0FFD1F8381902FA6
:100990009095892383830AC08113F1CFFE01EE0D68
:1009A000F11D8381802B8383FF24F3946F2DCE016F
:1009B0000E9438031F5F000F11F4E39401E087E009
:1009C0008E1508F0ACCFB7CFFB0101900020E9F7FE
:1009D0003197AF01461B570BDC01ED91FC91028072
:1009E000F381E02D09948F929F92AF92BF92EF9284
:1009F000FF920F931F93CF93DF93CDB7DEB7A197ED
:100A00000FB6F894DEBF0FBECDBF7C01FA01CB015B
:100A100019A2223008F42AE08E010F5D1F4F822EAA
:100A2000912CB12CA12CBF01A50194010E94380D7D
:100A3000F901CA016A300CF5605DD8016E938D0131
:100A4000232B242B252B79F790E080E0109721F0C1
:100A5000BD01C7010E94E404A1960FB6F894DEBF61
:100A60000FBECDBFDF91CF911F910F91FF90EF90FF
:100A7000BF90AF909F908F900895695CDECF2F92CA
:100A80003F924F925F926F927F928F929F92AF921E
:100A9000BF92CF92DF92EF92FF921F93CF93DF939B
:100AA000EC016A017B01722EAB019601CB01B6010C
:100AB0000E941F0D6AE271E0811126C046015701B4
:100AC000E894B7F82FEF3FEF4FE75FE7C501B401B8
:100AD0000E941F0D81110CC02FEF3FEF4FE75FE722
:100AE000C501B4010E94550B6EE271E0181664F066
:100AF0002FEF3FEF4FE75FE4C701B6010E94AD0C57
:100B00001816B4F462E371E0CE01DF91CF911F912A
:100B1000FF90EF90DF90CF90BF90AF909F908F901D
:100B20007F906F905F904F903F902F900C94E404D3
:100B30002FEF3FEF4FE75FECC701B6010E94550B67
:100B400087FDE0CF20E030E0A901C701B6010E9497
:100B5000550B312C212C87FF0DC0E881F9810190C4
:100B6000F081E02D6DE2CE0109951C01F7FAF094B9
:100B7000F7F8F09410E060E070E080E09FE3711619
:100B800041F020E030E040E251E40E945A0B1F5F48
:100B9000F6CFA70196010E94E90A2B013C010E94B1
:100BA000CC0B4B015C012AE0BC01A401CE010E94E8
:100BB000F3047C01E20CF31C1123E1F1C501B40143
:100BC0000E94FB0B9B01AC01C301B2010E94E80A29
:100BD0004B015C01E881F9810190F081E02D6EE22A
:100BE000CE010995E80EF91E115020F120E030E009
:100BF00040E251E4C501B4010E94B20C2B013C015A
:100C00000E94CC0B4B01B12CA12C2AE0B501A40110
:100C1000CE010E94F304E80EF91EC501B4010E9442
:100C2000FB0B9B01AC01C301B2010E94E80A4B011E
:100C30005C01DACFC701DF91CF911F91FF90EF9058
:100C4000DF90CF90BF90AF909F908F907F906F90EC
:100C50005F904F903F902F9008951F920F920FB684
:100C60000F9211242F933F938F939F93AF93BF9332
:100C70008091870190918801A0918901B0918A01AA
:100C80003091860123E0230F2D3758F50196A11DE1
:100C9000B11D209386018093870190938801A093D2
:100CA0008901B0938A0180918B0190918C01A09170
:100CB0008D01B0918E010196A11DB11D80938B0114
:100CC00090938C01A0938D01B0938E01BF91AF9151
:100CD0009F918F913F912F910F900FBE0F901F907A
:100CE000189526E8230F0296A11DB11DD2CF1F92A1
:100CF0000F920FB60F9211242F933F934F935F9350
:100D00006F937F938F939F93AF93BF93EF93FF93D3
:100D10008FE891E00E94BF01FF91EF91BF91AF91E9
:100D20009F918F917F916F915F914F913F912F9103
:100D30000F900FBE0F901F9018951F920F920FB635
:100D40000F9211242F938F939F93EF93FF93E09132
:100D50009F01F091A0018081E091A501F091A60191
:100D600082FD1BC090818091A8018F5F8F732091BD
:100D7000A901821741F0E091A801F0E0E157FE4F90
:100D8000958F8093A801FF91EF919F918F912F9163
:100D90000F900FBE0F901F9018958081F4CF1F9277
:100DA0000F920FB60F9211242F933F934F935F939F
:100DB0006F937F938F939F93AF93BF93EF93FF9323
:100DC000E0917C01F0917D01309749F0A685B785CF
:100DD0008585968D91FF14C09C918923A1F4FF9184
:100DE000EF91BF91AF919F918F917F916F915F91A3
:100DF0004F913F912F910F900FBE0F901F9018951C
:100E00009C91892361F7A389B4899C9185898095F8
:100E100089238C93868997890197F1F7608D718D6D
:100E2000A685B785558538E020E0CB010197F1F71D
:100E3000822F90E095958795282F4C91452309F0B6
:100E40002068315091F7868D81FD209580917A013F
:100E500090E001968F73992730917B01381799F0B4
:100E6000A0917A01B0E0A65CBE4F2C9380937A01EA
:100E7000828D938D0197F1F7A389B4898C9195891F
:100E8000892B8C93ACCF868D8160868FF1CFCF93E9
:100E9000DF9390E0FC01E253FF4F249186549F4F73
:100EA000FC0184918823D1F090E0880F991FFC0108
:100EB000E857FF4FA591B491FC01EA55FF4FC5914A
:100EC000D49161110EC09FB7F8948C91E22FE095F8
:100ED0008E238C932881E223E8839FBFDF91CF91FB
:100EE00008958FB7F894EC91E22BEC938FBFF6CF77
:100EF000CF92DF92EF92FF921092920110929101A5
:100F000098EEC92E93E0D92EE12CF12CC0929301DA
:100F1000D0929401E0929501F09296018AE091E0DE
:100F20009093900180938F0185EC90E090939C01C9
:100F300080939B0184EC90E090939E0180939D01AF
:100F400080EC90E09093A00180939F0181EC90E071
:100F50009093A2018093A10182EC90E09093A40170
:100F60008093A30186EC90E09093A6018093A50165
:100F70001092A8011092A9011092AA011092AB013F
:100F800060E088E00E944707E6EDF0E0E491E0933E
:100F90006202E2ECF0E0E491F0E0EE0FFF1FE055BA
:100FA000FF4F859194919093640280936302109215
:100FB0006D0210926F0210926E0210926C021092EB
:100FC0006B0210926A0210926902109268021092EB
:100FD00067021092660210926502109261021092EE
:100FE000600210924C0282E692E090935502809348
:100FF0005402109252021092530210924B0289E056
:1010000080934E0261E060934F02609350026093C0
:10101000510210922F0210922E02C0923002D092F2
:101020003102E0923202F09233028CE191E090932F
:101030002D0280932C0210924302109242021092D1
:1010400045021092440210924702109246021092FA
:1010500049021092480280914A028E7F8D7F8093D0
:101060004A0286958170682784E00E949D0061E0B5
:1010700084E00E944707E2EDF0E0E491E0933C0257
:10108000EEEBF0E0E491F0E0EE0FFF1FEA55FF4FCA
:101090008591949190933E0280933D0260E083E0BD
:1010A0000E94470780914A0281FD04C061E083E00D
:1010B0000E949D0083E080933802E1EDF0E0E4912E
:1010C000E0933902EDEBF0E0E491F0E0EE0FFF1F6A
:1010D000E055FF4F8591949190933B0280933A02A3
:1010E000FF90EF90DF90CF900895CF93DF93CDB72F
:1010F000DEB761970FB6F894DEBF0FBECDBF789410
:1011000084B5826084BD84B5816084BD85B582600C
:1011100085BD85B5816085BD80916E0081608093BD
:101120006E00109281008091810082608093810026
:101130008091810081608093810080918000816036
:10114000809380008091B10084608093B100809191
:10115000B00081608093B00080917A0084608093B9
:101160007A0080917A00826080937A0080917A0080
:10117000816080937A0080917A00806880937A0001
:101180001092C100E0915402F09155021386158629
:101190001486128611861086178216821582148292
:1011A0001382109252021092530211E0BE01665F48
:1011B0007F4F80915402909155020E9464048823CD
:1011C00009F475C067E0CE010A960E94FD02998974
:1011D0008913ECCF809152028F5F809352028A85EF
:1011E000883231F008F049C0803111F08232F1F6D6
:1011F000809153028F5F8093530280914B02811143
:1012000028C080915402909155020E94BA03BE01F9
:10121000665F7F4F80915402909155020E949B031C
:1012200040E064EB80915402909155020E94670364
:1012300080915402909155020E941403082F8091CE
:101240005402909155020E94BA03011102C01093FA
:101250004B028A858031E1F0BE016F5F7F4FCE0186
:101260000A960E94F203882331F08D818F33D9F0E2
:1012700058F48F31D1F080E00EC08B3309F4B8CF31
:10128000823409F093CFB4CF8F3521F08F3799F79F
:101290008CE001C08BE090914E02981708F086CF49
:1012A00080934E0283CF8AE0F6CF89E0F4CFE091BD
:1012B0009F01F091A00182E08083E0919B01F09179
:1012C0009C011082E0919D01F0919E018FEC808342
:1012D0001092A701E091A301F091A40186E0808320
:1012E000E091A101F091A201808180618083E09171
:1012F000A101F091A201808188608083E091A10129
:10130000F091A201808180688083E091A101F09139
:10131000A20180818F7D808300E010E080915402E3
:10132000909155020E94BA0340E06CEC8091540207
:10133000909155020E94670340914B0264E48091B2
:101340005402909155020E94670380914F028823B6
:1013500091F1E0914E0280915002882309F4A1C0DE
:1013600080914B0281119DC08FB7F894C090870186
:10137000D0908801E0908901F0908A018FBF809120
:101380005402909155020E9414038130A1F02FB7AE
:10139000F8948091870190918801A0918901B09182
:1013A0008A012FBF8C199D09AE09BF098E3E92405C
:1013B000A105B10520F3E0915402F0915502138686
:1013C000158614861286118610861782168215825B
:1013D00014821382BE01665F7F4F80915402909108
:1013E00055020E946404811184C0C12CD12CFEEFEF
:1013F000EF2EF2ECFF2EC0928201D0928301E09298
:101400008401F092850126E636E646EE5FE3C701E9
:10141000B6010E94B20C20E030E040E052E40E94AD
:10142000E90A4B015C0180927E0190927F01A092BB
:101430008001B092810120E030E04EEF52ECC70114
:10144000B6010E94AD0C181604F522E0B501A40106
:101450008FE891E00E943F0540917E0150917F010D
:10146000609180017091810122E08CE292E00E9403
:101470003F0566E371E08CE292E00E94E40468EECE
:1014800073E080E090E00E940E010115110509F45F
:1014900045CF0E94AB01882309F440CF0E94000091
:1014A0003DCFE9508EEE92E0E33038F4F0E0EE0FFD
:1014B000FF1FE050FF4F808191816C01990FEE0872
:1014C000FF0880914C02882329F060E080914D0252
:1014D0000E949D00C701B6010E940E0180914C023E
:1014E000882309F468CF61E080914D020E949D003D
:1014F00062CF67E0CE010A960E94FD0299898913A6
:1015000074CFBE016F5F7F4FCE010A960E94F20337
:10151000882309F46ACF6A8170E0762F6627770FF7
:10152000770F770F298148E0249F90011124262B03
:10153000372B8A858031E1F468856623C9F070E035
:101540008F81AB01481B5109CA019695982F8827B6
:10155000979587950E94240DCB018097B90153E0A0
:10156000660F771F5A95E1F760789C01260F371FA9
:10157000213854EE35070CF438CFB901330F880BFE
:10158000990B0E94FD0B20E030E040E05CE30E94FC
:10159000B20C6B017C012FCF8CE191E090932D0276
:1015A00080932C0280917C0190917D018C5292401D
:1015B00071F4E0913F02F0914002908180914102EC
:1015C00080958923808310927D0110927C0108957B
:1015D0005058BB27AA270E94000B0C94730C0E9442
:1015E000650C38F00E946C0C20F039F49F3F19F420
:1015F00026F40C94620C0EF4E095E7FB0C945C0C62
:10160000E92F0E94840C58F3BA1762077307840706
:10161000950720F079F4A6F50C94A60C0EF4E0954D
:101620000B2EBA2FA02D0B01B90190010C01CA019C
:10163000A0011124FF27591B99F0593F50F4503E47
:1016400068F11A16F040A22F232F342F4427585F39
:10165000F3CF469537952795A795F0405395C9F751
:101660007EF41F16BA0B620B730B840BBAF0915009
:10167000A1F0FF0FBB1F661F771F881FC2F70EC0A8
:10168000BA0F621F731F841F48F48795779567957B
:10169000B795F7959E3F08F0B0CF9395880F08F067
:1016A0009927EE0F9795879508950E94380C08F4B6
:1016B00081E008950E946E0B0C94730C0E946C0CD8
:1016C00058F00E94650C40F029F45F3F29F00C941B
:1016D0005C0C51110C94A70C0C94620C0E94840CAD
:1016E00068F39923B1F3552391F3951B550BBB2751
:1016F000AA2762177307840738F09F5F5F4F220F96
:10170000331F441FAA1FA9F335D00E2E3AF0E0E88C
:1017100032D091505040E695001CCAF72BD0FE2FD6
:1017200029D0660F771F881FBB1F2617370748076A
:10173000AB07B0E809F0BB0B802DBF01FF27935822
:101740005F4F3AF09E3F510578F00C945C0C0C947E
:10175000A70C5F3FE4F3983ED4F3869577956795A1
:10176000B795F7959F5FC9F7880F911D9695879557
:1017700097F90895E1E0660F771F881FBB1F621776
:1017800073078407BA0720F0621B730B840BBA0B34
:10179000EE1F88F7E09508950E948C0C88F09F5703
:1017A00098F0B92F9927B751B0F0E1F0660F771F85
:1017B000881F991F1AF0BA95C9F714C0B13091F07B
:1017C0000E94A60CB1E008950C94A60C672F782F08
:1017D0008827B85F39F0B93FCCF386957795679540
:1017E000B395D9F73EF490958095709561957F4FAC
:1017F0008F4F9F4F0895E89409C097FB3EF4909552
:101800008095709561957F4F8F4F9F4F9923A9F0D9
:10181000F92F96E9BB279395F69587957795679568
:10182000B795F111F8CFFAF4BB0F11F460FF1BC0AC
:101830006F5F7F4F8F4F9F4F16C0882311F096E93F
:1018400011C0772321F09EE8872F762F05C06623ED
:1018500071F096E8862F70E060E02AF09A95660FA6
:10186000771F881FDAF7880F9695879597F908955F
:10187000990F0008550FAA0BE0E8FEEF16161706A1
:10188000E807F907C0F012161306E407F50798F009
:10189000621B730B840B950B39F40A2661F0232B22
:1018A000242B252B21F408950A2609F4A140A6959E
:1018B0008FEF811D811D089597F99F6780E870E083
:1018C00060E008959FEF80EC089500240A941616B6
:1018D000170618060906089500240A94121613061E
:1018E000140605060895092E0394000C11F48823AC
:1018F00052F0BB0F40F4BF2B11F460FF04C06F5FC8
:101900007F4F8F4F9F4F089557FD9058440F551F9D
:1019100059F05F3F71F04795880F97FB991F61F071
:101920009F3F79F087950895121613061406551FE8
:10193000F2CF4695F1DF08C0161617061806991F54
:10194000F1CF86957105610508940895E894BB2749
:1019500066277727CB0197F908950E94380C08F481
:101960008FEF08950E94C50C0C94730C0E94650CB7
:1019700038F00E946C0C20F0952311F00C945C0C54
:101980000C94620C11240C94A70C0E94840C70F32C
:10199000959FC1F3950F50E0551F629FF001729F14
:1019A000BB27F00DB11D639FAA27F00DB11DAA1F23
:1019B000649F6627B00DA11D661F829F2227B00D70
:1019C000A11D621F739FB00DA11D621F839FA00DFB
:1019D000611D221F749F3327A00D611D231F849F4B
:1019E000600D211D822F762F6A2F11249F575040A2
:1019F0009AF0F1F088234AF0EE0FFF1FBB1F661F1D
:101A0000771F881F91505040A9F79E3F510580F0E5
:101A10000C945C0C0C94A70C5F3FE4F3983ED4F359
:101A2000869577956795B795F795E7959F5FC1F789
:101A3000FE2B880F911D9695879597F908950E9422
:101A4000380C880B990B089597FB072E16F4009419
:101A500007D077FD09D00E945A0D07FC05D03EF44F
:101A6000909581959F4F0895709561957F4F08954A
:101A7000A1E21A2EAA1BBB1BFD010DC0AA1FBB1F92
:101A8000EE1FFF1FA217B307E407F50720F0A21B04
:101A9000B30BE40BF50B661F771F881F991F1A9471
:101AA00069F760957095809590959B01AC01BD019B
:101AB000CF010895AA1BBB1B51E107C0AA1FBB1F82
:101AC000A617B70710F0A61BB70B881F991F5A95CA
:101AD000A9F780959095BC01CD010895EE0FFF1FE9
:101AE0000590F491E02D099410E0C2E7D0E004C025
:101AF000FE010E946E0D2196C337D107C9F7F894F5
:101B0000FFCF5E00BC00770100000000E101410151
:101B10006E012E029F017D0191010000000067020D
:101B20004101FA026602C302D9024E026E616E00E2
:0C1B3000696E66006F7666000D0A00000A
:107E0000112484B714BE81FFF0D085E080938100F7
:107E100082E08093C00088E18093C10086E0809377
:107E2000C20080E18093C4008EE0C9D0259A86E02C
:107E300020E33CEF91E0309385002093840096BBD3
:107E4000B09BFECF1D9AA8958150A9F7CC24DD24C4
:107E500088248394B5E0AB2EA1E19A2EF3E0BF2EE7
:107E6000A2D0813461F49FD0082FAFD0023811F036
:107E7000013811F484E001C083E08DD089C08234E0
:107E800011F484E103C0853419F485E0A6D080C0E4
:107E9000853579F488D0E82EFF2485D0082F10E0AE
:107EA000102F00270E291F29000F111F8ED06801E7
:107EB0006FC0863521F484E090D080E0DECF843638
:107EC00009F040C070D06FD0082F6DD080E0C81688
:107ED00080E7D80618F4F601B7BEE895C0E0D1E017
:107EE00062D089930C17E1F7F0E0CF16F0E7DF06D8
:107EF00018F0F601B7BEE89568D007B600FCFDCFD4
:107F0000A601A0E0B1E02C9130E011968C91119780
:107F100090E0982F8827822B932B1296FA010C0160
:107F200087BEE89511244E5F5F4FF1E0A038BF0790
:107F300051F7F601A7BEE89507B600FCFDCF97BE46
:107F4000E89526C08437B1F42ED02DD0F82E2BD052
:107F50003CD0F601EF2C8F010F5F1F4F84911BD097
:107F6000EA94F801C1F70894C11CD11CFA94CF0C13
:107F7000D11C0EC0853739F428D08EE10CD085E9AC
:107F80000AD08FE07ACF813511F488E018D01DD067
:107F900080E101D065CF982F8091C00085FFFCCF94
:107FA0009093C60008958091C00087FFFCCF809118
:107FB000C00084FD01C0A8958091C6000895E0E648
:107FC000F0E098E1908380830895EDDF803219F02E
:107FD00088E0F5DFFFCF84E1DECF1F93182FE3DFCA
:107FE0001150E9F7F2DF1F91089580E0E8DFEE27F6
:047FF000FF270994CA
:027FFE00040479
:00000001FF
